:100000000C9467000C944C030C9425030C948F0003
:100010000C948F000C948F000C948F000C948F0024
:100020000C948F000C948F000C948F000C948F0014
:100030000C948F000C948F000C948F000C948F0004
:100040000C94DB020C948F000C948F000C948F00A6
:100050000C948F000C948F000C948F000C948F00E4
:100060000C9473030C948F00000000002300260002
:10007000290000000000240027002A0000000000E2
:10008000250028002B0004040404040404040202D4
:100090000202020203030303030302020301020438
:1000A00008102040800102040810200102040810FA
:1000B0002040804000000009000302000004050801
:1000C000000000000000000000000000580511249E
:1000D0001FBECFEFD8E0DEBFCDBF11E0A0E0B1E0A2
:1000E000E2EEFAE002C005900D92A033B107D9F715
:1000F00021E0A0E3B1E001C01D92A93CB207E1F705
:1001000010E0C7E6D0E004C02197FE010E94690517
:10011000C636D107C9F70E948C040C946F050C9465
:100120000000CF93DF9390E0FC01E356FF4F249152
:100130008A579F4FFC0184918823C1F090E0880F7B
:10014000991FFC01EE58FF4FC591D491FC01E45872
:10015000FF4FA591B4919FB7F8943881822F809575
:1001600083238883EC91E22BEC939FBFDF91CF91A7
:100170000895843081F028F48230E9F08330F9F07A
:100180000895883071F0893091F08530B9F480910C
:1001900080008F7D03C0809180008F7780938000E6
:1001A00008958091B0008F778093B000089580917A
:1001B000B0008F7DF9CF84B58F7784BD089584B565
:1001C0008F7DFBCFCF93DF93282F30E0F901EC54E4
:1001D000FF4F8491F901E356FF4FD491F901EA579B
:1001E000FF4FC491CC2389F081110E94B900EC2FFC
:1001F000F0E0EE0FFF1FE458FF4FA591B4918FB7C9
:10020000F894EC91DE2BDC938FBFDF91CF910895B2
:10021000CF93DF93282F30E0F901EC54FF4F849106
:10022000F901E356FF4FD491F901EA57FF4FC4910A
:10023000CC23A1F081110E94B900EC2FF0E0EE0F69
:10024000FF1FE859FF4FA591B491EC91ED2381E098
:1002500090E009F480E0DF91CF91089580E090E094
:10026000FACF3FB7F8948091C5019091C601A09153
:10027000C701B091C80126B5A89B05C02F3F19F052
:100280000196A11DB11D3FBFBA2FA92F982F882716
:10029000BC01CD01620F711D811D911D42E0660FF1
:1002A000771F881F991F4A95D1F70895E091AD01F6
:1002B000F091AE01309729F01092AA011092A90195
:1002C000099408950895089585ED8093BC00809168
:1002D000BC0084FDFCCF1092A801089520917B0101
:1002E000260F3327331F21323105ECF42091A8016A
:1002F000FC0190E080E0243069F082E00895A09154
:100300007B012191AC01455A5E4FA40FB52FB11D61
:100310002C930196861798F380917B01680F609368
:100320007B0180E0089581E008950895E091AC019B
:100330008091AB01E81730F4F0E0E55CFE4F80817E
:1003400090E008958FEF9FEF08959091AC01809118
:10035000AB012FEF3FEF981748F4E92FF0E0E55C91
:10036000FE4F208130E09F5F9093AC01C90108955A
:100370008091AB019091AC01891B990B0895CF93AB
:10038000DF93CB01EA01642F0E946E01CE01DF9161
:10039000CF910895CF93DF931F92CDB7DEB76983D6
:1003A00061E0CE0101960E946E0181E090E00F9025
:1003B000DF91CF91089590E080E00895CF93DF938F
:1003C0008FB7F8946091380170913901109239011A
:1003D0001092380110923701C0913A01D091360144
:1003E000109236018FBF60387105A4F460388FEF2A
:1003F00078079CF08FEA91E00E94CA0180E2D89FC2
:10040000B0011124CF716C2B8FEA91E0DF91CF9175
:100410000C94CA016FE7D1E0EDCF60E8FCCFFC019E
:100420009081990F692B6083611103C081E0818302
:1004300008956F3F09F41182089581E00E94080138
:1004400061E0892B09F460E088E091E00E940F02EE
:1004500082E00E94080161E0892B09F460E086E0F7
:1004600091E00E940F0283E00E94080161E0892B65
:1004700009F460E084E091E00E940F0284E00E94B1
:10048000080161E0892B09F460E082E091E00E94BC
:100490000F0280E00E94080161E0892B09F460E00E
:1004A00080E091E00E940F02809109019091070184
:1004B00091118260909105019111846090910301E6
:1004C000911188609091010191118061F89480935D
:1004D0003A0178940895CF9386E00E940801C82FCE
:1004E00087E00E940801CC0F8C2BCF910895AC01BE
:1004F0008091380190913901092E000CAA0BBB0B99
:10050000052E000C660B770B840F951FA61FB71FD7
:10051000811520E89207A105B10551F48FEF9FE7FF
:10052000909339018093380181E0809336010895DA
:100530008F3F2FE792072FEFA207B20719F480E051
:1005400090E8EECF909339018093380108950E948E
:100550006B02E091BB018093BB0194E0E99FF00145
:1005600011248E2BE82FF0E0E25FFE4F908199235B
:1005700009F180913701890F80933701809137010C
:10058000843074F4809137018D3FA4F48091370159
:100590008C5F809337018FEF9FEF0E947702F2CF3D
:1005A0008091370184508093370181E090E00E9470
:1005B0007702E4CF08951F920F920FB60F92112485
:1005C0002F933F938F939F93AF93BF938091C101DC
:1005D0009091C201A091C301B091C4013091C001BA
:1005E00023E0230F2D3768F126E8230F0296A11D83
:1005F000B11D2093C0018093C1019093C201A093CB
:10060000C301B093C4018091C5019091C601A0912E
:10061000C701B091C8010196A11DB11D8093C5010C
:100620009093C601A093C701B093C801BF91AF9149
:100630009F918F913F912F910F900FBE0F901F9020
:1006400018950196A11DB11DD4CF1F920F920FB620
:100650000F9211242F933F934F935F936F937F9348
:100660008F939F93AF93BF93EF93FF93E0910C0110
:10067000F0910D010995FF91EF91BF91AF919F917D
:100680008F917F916F915F914F913F912F910F903B
:100690000FBE0F901F9018951F920F920FB60F92DA
:1006A00011242F933F934F935F936F937F938F9377
:1006B0009F93AF93BF93EF93FF93E0910A01F09163
:1006C0000B010995FF91EF91BF91AF919F918F9190
:1006D0007F916F915F914F913F912F910F900FBE3E
:1006E0000F901F9018951F920F920FB60F92112422
:1006F0002F933F934F935F936F937F938F939F932A
:10070000AF93BF93EF93FF938091B900887F8036BA
:1007100009F44AC0F0F5883209F4A7C018F5803111
:1007200009F49BC0B8F4882309F4F3C0883009F4B5
:1007300094C0FF91EF91BF91AF919F918F917F9165
:100740006F915F914F913F912F910F900FBE0F903E
:100750001F901895883109F488C0803251F7809332
:100760009E0114C0803409F499C040F48033B9F379
:100770008833F9F680939E0185ECAAC0803509F490
:1007800083C0883509F492C0883499F60E946401C8
:10079000D0CF883909F488C038F5883729F050F46B
:1007A000883611F0803729F683E08093A8011092F3
:1007B0009D0157C0883809F477C0803919F0803816
:1007C00009F0B7CF80919D01803208F06DC0E091B3
:1007D0009D0181E08E0F80939D018091BB00F0E030
:1007E000E358FE4F80833DC0803B39F0E0F4803A0F
:1007F00009F473C0883A09F09CCF84E08093A80183
:1008000010927C0110927B01E091A401F091A5016E
:10081000099580917B0181110FC081E080937B015C
:1008200010925B0109C0803C09F4A6CF883C09F412
:10083000A3CF883B09F07DCFE0917C0181E08E0F52
:1008400080937C01F0E0E55AFE4F80818093BB00ED
:1008500090917C0180917B0125C08091A1018093C2
:10086000BB0085EC8093BC0064CF9091A001809187
:100870009F01981728F5E091A00181E08E0F8093E9
:10088000A001F0E08081EBCFE091A00181E08E0F2C
:100890008093A0018091BB00F0E080839091A00143
:1008A00080919F019817E8F285E8DCCFE091A001E4
:1008B00081E08E0F8093A0018091BB00F0E08083E7
:1008C0008091A701811162CF81E08093A60184EA23
:1008D0008093BC001092A8012CCF85EC8093BC00C3
:1008E0001092A80180919D01803230F4E0919D0129
:1008F000F0E0E358FE4F108260919D0170E0E091BE
:10090000A201F091A3018DE791E0099510929D015C
:1009100010CF10929E013ACF789484B5836084BD45
:1009200085B5836085BD80916E00816080936E0087
:1009300082E08093810080918100816080938100BA
:10094000809180008160809380008091B1008460FC
:100950008093B1008091B00081608093B00087E8FF
:1009600080937A001092C10081E00E94910082E0A1
:100970000E94910083E00E94910084E00E94910017
:1009800080E00E94910086E00E94910087E00E9432
:1009900091000E946B028093BB011092AC011092F7
:1009A000AB011092AA011092A9011092A80181E056
:1009B0008093A7011092A60182E10E94E20083E1E8
:1009C0000E94E2008091B9008E7F8093B9008091EF
:1009D000B9008D7F8093B90088E48093B80085E4E6
:1009E0008093BC0086E591E09093A5018093A401DB
:1009F00082E691E09093A3018093A20184E2809328
:100A0000BA008EED91E09093AE018093AD01C0E10C
:100A1000D0E00E941D020E9431016B017C010E9406
:100A200031016C197D098E099F09683E734081056B
:100A30009105A8F3219769F72FB7F8948091C10128
:100A40009091C201A091C301B091C4012FBF8093C6
:100A5000BC019093BD01A093BE01B093BF01C0E063
:100A6000D0E02FB7F8948091C1019091C201A0917C
:100A7000C301B091C4012FBF4091BC015091BD0191
:100A80006091BE017091BF01481759076A077B0743
:100A900051F08093BC019093BD01A093BE01B0932F
:100AA000BF010E941D022097E1F20E940000D9CFF1
:100AB000EFEAF1E01382128288EE93E0A0E0B0E06A
:100AC00084839583A683B78382E291E091838083B8
:100AD0000895EE0FFF1F0590F491E02D0994F8940E
:020AE000FFCF46
:100AE200FF00FF00FF00FF00FF006301000000FFA6
:100AF2000100010000FFFF0000010001FF000000F3
:100B02000000CA01BF01DB019501B801A5019601F0
:00000001FF
