:020000040000FA
:100000000C9467000C948F000C948F000C948F005C
:100010000C948F000C9409040C948F000C948F00A6
:100020000C948F000C948F000C948F000C948F0014
:100030000C948F000C948F000C948F000C948F0004
:100040000C94A6020C948F000C948F000C948F00DB
:100050000C948F000C948F000C948F000C948F00E4
:100060000C94F0020C948F00000000002300260086
:10007000290000000000240027002A0000000000E2
:10008000250028002B0004040404040404040202D4
:100090000202020203030303030302020301020438
:1000A00008102040800102040810200102040810FA
:1000B0002040804000000009000302000004050801
:1000C00000000000000000000000000039051124BD
:1000D0001FBECFEFD8E0DEBFCDBF11E0A0E0B1E0A2
:1000E000E4EAFAE002C005900D92AC32B107D9F70C
:1000F00021E0ACE2B1E001C01D92A53CB207E1F7FE
:1001000010E0C7E6D0E004C02197FE010E944A0536
:10011000C636D107C9F70E945E040C9450050C94B2
:100120000000CF93DF9390E0FC01E356FF4F249152
:100130008A579F4FFC0184918823C1F090E0880F7B
:10014000991FFC01EE58FF4FC591D491FC01E45872
:10015000FF4FA591B4919FB7F8943881822F809575
:1001600083238883EC91E22BEC939FBFDF91CF91A7
:100170000895843081F028F48230E9F08330F9F07A
:100180000895883071F0893091F08530B9F480910C
:1001900080008F7D03C0809180008F7780938000E6
:1001A00008958091B0008F778093B000089580917A
:1001B000B0008F7DF9CF84B58F7784BD089584B565
:1001C0008F7DFBCFCF93DF93282F30E0F901EC54E4
:1001D000FF4F8491F901E356FF4FD491F901EA579B
:1001E000FF4FC491CC2389F081110E94B900EC2FFC
:1001F000F0E0EE0FFF1FE458FF4FA591B4918FB7C9
:10020000F894EC91DE2BDC938FBFDF91CF910895B2
:10021000CF93DF93282F30E0F901EC54FF4F849106
:10022000F901E356FF4FD491F901EA57FF4FC4910A
:10023000CC23A1F081110E94B900EC2FF0E0EE0F69
:10024000FF1FE859FF4FA591B491EC91ED2381E098
:1002500090E009F480E0DF91CF91089580E090E094
:10026000FACF3FB7F8948091C1019091C201A0915B
:10027000C301B091C40126B5A89B05C02F3F19F05A
:100280000196A11DB11D3FBFBA2FA92F982F882716
:10029000BC01CD01620F711D811D911D42E0660FF1
:1002A000771F881F991F4A95D1F70895E091A901FA
:1002B000F091AA01309729F01092A6011092A501A1
:1002C00009940895089585ED8093BC008091BC0049
:1002D00084FDFCCF1092A401089520917701260F90
:1002E0003327331F21323105ECF42091A401FC01A6
:1002F00090E080E0243069F082E00895A0917701D9
:100300002191AC01495A5E4FA40FB52FB11D2C931A
:100310000196861798F380917701680F60937701B3
:1003200080E0089581E008950895E091A80180910A
:10033000A701E81730F4F0E0E95CFE4F808190E01F
:1003400008958FEF9FEF08959091A8018091A701E4
:100350002FEF3FEF981748F4E92FF0E0E95CFE4FEC
:10036000208130E09F5F9093A801C901089580919A
:10037000A7019091A801891B990B0895CF93DF9352
:10038000CB01EA01642F0E946D01CE01DF91CF9174
:100390000895CF93DF931F92CDB7DEB7698361E0F5
:1003A000CE0101960E946D0181E090E00F90DF91F7
:1003B000CF91089590E080E00895CF93DF938FB7B9
:1003C000F8946091340170913501109235011092CA
:1003D000340110923301C0913601D0913201109254
:1003E00032018FBF60387105A4F460388FEF780751
:1003F0009CF08BEA91E00E94C90180E2D89FB00195
:100400001124CF716C2B8BEA91E0DF91CF910C948A
:10041000C9016FE7D1E0EDCF60E8FCCFFC0190812E
:10042000990F692B6083611103C081E08183089576
:100430006F3F09F41182089581E00E94080161E094
:10044000892B09F460E088E091E00E940E0282E0CE
:100450000E94080161E0892B09F460E086E091E0E8
:100460000E940E0283E00E94080161E0892B09F4DA
:1004700060E084E091E00E940E0284E00E940801A6
:1004800061E0892B09F460E082E091E00E940E02B5
:1004900080E00E94080161E0892B09F460E080E0BF
:1004A00091E00E940E028091090190910701911143
:1004B00082609091050191118460909103019111E6
:1004C00088609091010191118061F89480933601C8
:1004D00078940895CF9386E00E940801C82F87E0A2
:1004E0000E940801CC0F8C2BCF910895AC01809114
:1004F000340190913501092E000CAA0BBB0B052E7F
:10050000000C660B770B840F951FA61FB71F811574
:1005100020E89207A105B10551F48FEF9FE7909372
:1005200035018093340181E08093320108958F3F3B
:100530002FE792072FEFA207B20719F480E090E8A7
:10054000EECF909335018093340108951F920F925E
:100550000FB60F9211242F933F938F939F93AF93D6
:10056000BF938091BD019091BE01A091BF01B09158
:10057000C0013091BC0123E0230F2D3768F126E83C
:10058000230F0296A11DB11D2093BC018093BD01D4
:100590009093BE01A093BF01B093C0018091C101AF
:1005A0009091C201A091C301B091C4010196A11D17
:1005B000B11D8093C1019093C201A093C301B09378
:1005C000C401BF91AF919F918F913F912F910F9057
:1005D0000FBE0F901F9018950196A11DB11DD4CF8D
:1005E0001F920F920FB60F9211242F933F934F93A8
:1005F0005F936F937F938F939F93AF93BF93EF938B
:10060000FF938091B900887F803609F44AC0F0F5E5
:10061000883209F4A7C018F5803109F49BC0B8F4FA
:10062000882309F4F3C0883009F494C0FF91EF9156
:10063000BF91AF919F918F917F916F915F914F91FA
:100640003F912F910F900FBE0F901F9018958831FA
:1006500009F488C0803251F780939A0114C0803425
:1006600009F499C040F48033B9F38833F9F68093E4
:100670009A0185ECAAC0803509F483C0883509F455
:1006800092C0883499F60E946301D0CF883909F46A
:1006900088C038F5883729F050F4883611F0803753
:1006A00029F683E08093A4011092990157C08838FD
:1006B00009F477C0803919F0803809F0B7CF8091FC
:1006C0009901803208F06DC0E091990181E08E0FB0
:1006D000809399018091BB00F0E0E758FE4F808342
:1006E0003DC0803B39F0E0F4803A09F473C0883AA9
:1006F00009F09CCF84E08093A401109278011092BD
:100700007701E091A001F091A10109958091770115
:1007100081110FC081E0809377011092570109C0C9
:10072000803C09F4A6CF883C09F4A3CF883B09F0AC
:100730007DCFE091780181E08E0F80937801F0E029
:10074000E95AFE4F80818093BB009091780180919F
:10075000770125C080919D018093BB0085EC80933B
:10076000BC0064CF90919C0180919B01981728F563
:10077000E0919C0181E08E0F80939C01F0E08081EC
:10078000EBCFE0919C0181E08E0F80939C018091E2
:10079000BB00F0E0808390919C0180919B019817B1
:1007A000E8F285E8DCCFE0919C0181E08E0F809338
:1007B0009C018091BB00F0E080838091A3018111B6
:1007C00062CF81E08093A20184EA8093BC00109202
:1007D000A4012CCF85EC8093BC001092A4018091E1
:1007E0009901803230F4E0919901F0E0E758FE4F32
:1007F00010826091990170E0E0919E01F0919F015B
:1008000089E791E009951092990110CF10929A0111
:100810003ACF1F920F920FB60F9211242F933F934E
:100820004F935F936F937F938F939F93AF93BF93F8
:10083000EF93FF930E946A02E091B7018093B701A2
:1008400094E0E99FF00111248E2BE82FF0E0E65FA1
:10085000FE4F9081992309F180913301890F809394
:10086000330180913301843074F4809133018D3FE2
:10087000A4F4809133018C5F809333018FEF9FEF5D
:100880000E947602F2CF809133018450809333012D
:1008900081E090E00E947602E4CFFF91EF91BF915A
:1008A000AF919F918F917F916F915F914F913F9108
:1008B0002F910F900FBE0F901F901895789484B5CC
:1008C000836084BD85B5836085BD80916E00816045
:1008D00080936E0082E0809381008091810081602E
:1008E000809381008091800081608093800080915E
:1008F000B10084608093B1008091B00081608093EA
:10090000B00087E880937A001092C10081E00E94D5
:10091000910082E00E94910083E00E94910084E0B7
:100920000E94910080E00E94910086E00E94910068
:1009300087E00E9491000E946A028093B701809133
:10094000680084608093680080916D00806480936B
:100950006D0080916D00806880936D001092A801F9
:100960001092A7011092A6011092A5011092A40165
:1009700081E08093A3011092A20182E10E94E20033
:1009800083E10E94E2008091B9008E7F8093B900DC
:100990008091B9008D7F8093B90088E48093B8007E
:1009A00085E48093BC0086E591E09093A10180935B
:1009B000A00182E691E090939F0180939E0184E2E2
:1009C0008093BA008DED91E09093AA018093A901E4
:1009D000C0E1D0E00E941C020E9431016B017C0149
:1009E0000E9431016C197D098E099F09683E734090
:1009F00081059105A8F3219769F72FB7F8948091A5
:100A0000BD019091BE01A091BF01B091C0012FBF67
:100A10008093B8019093B901A093BA01B093BB0140
:100A2000C0E0D0E02FB7F8948091BD019091BE0155
:100A3000A091BF01B091C0012FBF4091B80150916A
:100A4000B9016091BA017091BB01481759076A0753
:100A50007B0751F08093B8019093B901A093BA013C
:100A6000B093BB010E941C022097E1F20E9400009B
:100A7000D9CFEBEAF1E01382128288EE93E0A0E096
:100A8000B0E084839583A683B7838EE191E0918360
:100A900080830895EE0FFF1F0590F491E02D0994D7
:100AA000F894FFCFFF00FF00FF00FF00FF0000FFF2
:100AB0000100010000FFFF0000010001FF00000035
:100AC0000000C901BE01DA019401B701A40195013A
:107E8000112424B614BE80E079D021FEEBC08EE030
:107E900075D0E0ECF0E0AFE7BFEF4899FECF9096E9
:107EA000489BFDCFB4831197F1F7B2E0B083B8E1FE
:107EB000B18352D0C82F823569F466D0E0E0FEE786
:107EC000A89583E093D091D0E058F109C8F787E7EF
:107ED0003CD0EFCF8D7FD9F44CD0D82FA0E0B1E0CB
:107EE0003BD08D93DA13FCCFA0E0B1E04DD0C111AF
:107EF0000CC0F2BDE1BD8D9180BDFA9AF99A319620
:107F0000F999FECFD150A9F7E2CF48D0E0CFC330E6
:107F100041F42FD0C82F38D0859117D0C150E1F748
:107F2000D6CFC13061F425D0C82F2ED0F2BDE1BD2F
:107F3000F89A80B50AD03196C150C1F7C8CFC13583
:107F400011F488E01BD020D0C2CF9091C00095FFE3
:107F5000FCCF8093C60008952D9A259A8091C00089
:107F600087FFFCCF84FD13C0A8958091C6002D9893
:107F70000895F2DFE82FF0DFF82FEECF98E190932D
:107F80006000809360000895E7DF803219F088E098
:107F9000F5DFFFCF80EAD9CFFB01DC01E07870E8A4
:107FA0007A0F9F01E0388EE7F80728F5309629F41C
:107FB0008FE38D938FEC8C93119790E045915D91B9
:107FC00045139160A713FACFF901A058B10990FFAA
:107FD00012C083E00BD081E00D901D9007D0329647
:107FE000A713FACFF90185E001D081E187BFE895B9
:107FF00017B610FCFDCF112408950319CDCFE7402B
:00000001FF
